S01700004D6963726F4D6F75736546696E616C2E7372656320
S11300000C9434000C9454010C947D010C94A601BE
S11300100C94CF010C94F8010C9451000C946605D7
S11300200C948F050C94B8050C9451000C94510059
S11300300C9451000C9451000C94AE040C94D7040D
S11300400C9400050C9451000C9451000C94510034
S11300500C9451000C94A9000C9451000C94510080
S11300600C9451000C94510011241FBECFEFD8E022
S1130070DEBFCDBF11E0A0E0B1E0E8EDF2E102C0E7
S113008005900D92AE31B107D9F721E0AEE1B1E0B0
S113009001C01D92AB35B207E1F70E94A0020C9497
S11300A06A090C94000020931F01E8E7F0E0148231
S11300B0A48190E4699FB00111246A2B90E2299FE6
S11300C0D0011124A62BA48312829281282F30E020
S11300D0B901660F771F62957295707F7627607FEE
S11300E07627492B642B220F331F220F331F220F35
S11300F0331F262B2283813019F48FB780688FBF7A
S11301000895E8E7F0E09281906892839481907F6B
S113011094839481892B8483828180648283828105
S113012084FFFDCFE8E7F0E08281806182838281F1
S11301308F77828380911F01813021F4809179002F
S113014090E00895E8E7F0E08081218190E0922B2F
S113015008951F920F920FB60F9211242F933F937D
S11301604F935F936F937F938F939F93AF93BF93BB
S1130170EF93FF93E0912001F0912101309781F0FA
S113018080911F01813021F48091790090E007C0B3
S1130190A8E7B0E08C9111962C9190E0922B0995F0
S11301A080911E01882329F0E8E7F0E082818064D1
S11301B08283FF91EF91BF91AF919F918F917F9136
S11301C06F915F914F913F912F910F900FBE0F90C0
S11301D01F90189560E072E18AE790E008958230FC
S11301E079F028F4882341F0813041F00895833078
S11301F069F0843089F00895E89A13C0E99A11C02F
S1130200E8E6F0E08081816080830BC0E8E6F0E0FE
S113021080818260808305C0E8E6F0E080818460AC
S113022080838FB780688FBF0895882319F0813049
S113023051F00895E9E6F0E080818C7F808380812D
S1130240682B60830895E9E6F0E08081837F8083F2
S11302508081660F660F682B608308958230A9F051
S113026028F4882341F0813059F00895833091F0C7
S11302708430A9F0089570932301609322010895B6
S1130280709325016093240108957093270160936E
S113029026010895709329016093280108957093AD
S11302A02B0160932A0108951F920F920FB60F92AB
S11302B011242F933F934F935F936F937F938F9367
S11302C09F93AF93BF93EF93FF93E0912201F0913B
S11302D02301309709F00995FF91EF91BF91AF91F8
S11302E09F918F917F916F915F914F913F912F914A
S11302F00F900FBE0F901F9018951F920F920FB67C
S11303000F9211242F933F934F935F936F937F9397
S11303108F939F93AF93BF93EF93FF93E091240147
S1130320F0912501309709F00995FF91EF91BF9164
S1130330AF919F918F917F916F915F914F913F9179
S11303402F910F900FBE0F901F9018951F920F9230
S11303500FB60F9211242F933F934F935F936F9394
S11303607F938F939F93AF93BF93EF93FF93E0910A
S11303702601F0912701309709F00995FF91EF913B
S1130380BF91AF919F918F917F916F915F914F91A9
S11303903F912F910F900FBE0F901F9018951F92B1
S11303A00F920FB60F9211242F933F934F935F93A5
S11303B06F937F938F939F93AF93BF93EF93FF9329
S11303C0E0912801F0912901309709F00995FF91F6
S11303D0EF91BF91AF919F918F917F916F915F91B9
S11303E04F913F912F910F900FBE0F901F90189532
S11303F01F920F920FB60F9211242F933F934F9396
S11304005F936F937F938F939F93AF93BF93EF9378
S1130410FF93E0912A01F0912B01309709F009959F
S1130420FF91EF91BF91AF919F918F917F916F91C8
S11304305F914F913F912F910F900FBE0F901F909E
S11304401895813021F060F0823021F006C086E2F8
S113045090E0089589E290E0089580E090E00895A6
S113046083E290E00895CF93DF93D62FC42F0E94A8
S11304702102FC01892BA9F1C130A1F018F0C2308E
S113048009F12FC0218181E090E002C0880F991FFB
S1130490DA95E2F78095922F9823918392818923AC
S11304A082831FC0218181E090E002C0880F991FE0
S11304B0DA95E2F7922F982B918392818095892384
S11304C082830FC0218181E090E002C0880F991FD0
S11304D0DA95E2F7982F9095922391839281892B54
S11304E08283DF91CF910895CF93DF93D62FC42FCA
S11304F00E9421020097E9F0CC2319F0C13071F079
S113050018C0FC01428121E030E002C0220F331FF9
S1130510DA95E2F72095242322830BC0FC01428163
S113052021E030E002C0220F331FDA95E2F7242BDA
S11305302283DF91CF91089581E080932C01089567
S113054041E063E082E00E94330241E064E082E043
S11305500E94330241E067E082E00E94330240E0FF
S113056060E081E00E94330242E062E082E00E94A7
S1130570330241E065E082E00E94330241E066E03C
S113058082E00E94330241E064E080E00E94330292
S113059041E065E080E00E94330241E062E080E0F7
S11305A00E94330241E063E080E00E94330220E0D5
S11305B047E061E080E00E9453000E945F0380E016
S11305C00E94EF0063E080E00E9415016CE972E094
S11305D080E00E942E0103E022E042E063E080E03C
S11305E00E94AD0320E040E060E081E00E94AD03A2
S11305F00E948B0385E090E00E944908EC0185E0AD
S113060090E00E9449089A838983FC01D483C383C0
S113061080912C018823F1F340E063E082E00E94A2
S1130620740241E064E082E00E94740240E067E00A
S113063082E00E94740286E00E9481008933934024
S1130640A8F441E064E080E00E94740240E065E0C8
S113065080E00E94740241E062E080E00E94740243
S113066040E063E080E00E947402D2CF40E064E0A6
S113067080E00E94740240E065E080E00E94740221
S113068040E062E080E00E94740240E063E080E0C9
S11306900E947402BDCF80912D0190912E01A091F2
S11306A02F01B09130010196A11DB11D80932D0140
S11306B090932E01A0932F01B093300108952BE461
S11306C033E041E050E060E070E081E00E94EF033D
S11306D081E00E948100909334018093330182E091
S11306E00E948100909332018093310141E064E0E3
S11306F080E00E94330241E065E080E00E94330222
S113070041E062E080E00E94330241E063E080E087
S11307100E943302089540E064E080E00E94740285
S113072040E065E080E00E94740240E062E080E026
S11307300E94740240E063E080E00E947402089525
S1130740882341F0813019F480EB90E0089580E033
S113075090E0089584E490E00895DF92EF92FF9290
S11307600F931F93CF93DF93823088F5D22FC42F3A
S1130770162FD82E0E94A003FC01108211828081C2
S1130780212F2370422F482B80E1D89F9001112400
S1130790242B80E4C89FA0011124422B4083818133
S11307A012FBEE24E0F8F12CEE0CFF1CEE0CFF1C07
S11307B0EE0CFF1C802BE82AE1828D2D90E0FC01D9
S11307C0EB5AFE4F0083FC01EF5BFE4F1083DF9179
S11307D0CF911F910F91FF90EF90DF9008952F928A
S11307E03F924F925F926F927F928F929F92AF92BD
S11307F0BF92CF92DF92EF92FF920F931F93CF930A
S1130800C82F6A017B015901823008F095C0082F76
S113081010E0F801EB5AFE4F90808FEF890D853080
S113082008F08AC0F801EF5BFE4F8081813021F42B
S1130830F694E794D794C7948C2F0E94A0031C01CC
S1130840F801EE0FFF1FE35CFE4FB182A082E92D99
S1130850F0E0EE0FFF1FEE0FFF1FEA5FFE4F408038
S1130860518062807380762C652C542C44240E9421
S1130870EA004B015C01C701B6010E942C076B0121
S11308807C01C501B40120E432E44FE050E00E9451
S11308902708C301B2010E942708CA01B9010E94B6
S11308A02C079B01AC01C701B6010E948B064B01CA
S11308B05C010E94FD066B017C010E942C079B01D8
S11308C0AC01C501B4010E941E0620E030E040E8FE
S11308D053E40E94BA070E94FD06662361F08FEF7D
S11308E0C81AD80AE80AF80A6095F1016283F80187
S11308F0ED5AFE4F6083000F111F000F111FF80106
S1130900E55BFE4FC082D182E282F382CC2319F0F0
S1130910C13051F011C0EEE6F0E080818160808347
S11309208FB780688FBF08C0E0E7F0E08081816006
S113093080838FB780688FBFCF911F910F91FF90F5
S1130940EF90DF90CF90BF90AF909F908F907F906B
S11309506F905F904F903F902F9008951F920F9249
S11309600FB60F9211242F933F934F935F936F937E
S11309707F938F939F93AF93BF93EF93FF93E091F4
S11309803901F0913A01309709F00995FF91EF91FF
S1130990BF91AF919F918F917F916F915F914F9193
S11309A03F912F910F900FBE0F901F9018951F929B
S11309B00F920FB60F9211242F933F934F935F938F
S11309C06F937F938F939F93AF93BF93EF93FF9313
S11309D0E0913501F0913601309709F00995FF91C6
S11309E0EF91BF91AF919F918F917F916F915F91A3
S11309F04F913F912F910F900FBE0F901F9018951C
S1130A001F920F920FB60F9211242F933F934F937F
S1130A105F936F937F938F939F93AF93BF93CF9382
S1130A20DF93EF93FF93E0913D01F0913E01309706
S1130A30D1F1C3E4D1E088819981AA81BB81019677
S1130A40A11DB11D88839983AA83BB8340914B0167
S1130A5050914C0160914D0170914E01841795079E
S1130A60A607B70721F0452B462B472BE1F4099540
S1130A7010924301109244011092450110924601D4
S1130A8080914B0190914C01A0914D01B0914E0188
S1130A90892B8A2B8B2B39F080914101811103C062
S1130AA08091530186BDFF91EF91DF91CF91BF916A
S1130AB0AF919F918F917F916F915F914F913F91F2
S1130AC02F910F900FBE0F901F9018951F920F92A9
S1130AD00FB60F9211242F933F934F935F936F930D
S1130AE07F938F939F93AF93BF93EF93FF93E09183
S1130AF03B01F0913C01309709F00995FF91EF918A
S1130B00BF91AF919F918F917F916F915F914F9121
S1130B103F912F910F900FBE0F901F9018951F9229
S1130B200F920FB60F9211242F933F934F935F931D
S1130B306F937F938F939F93AF93BF93EF93FF93A1
S1130B40E0913701F0913801309709F00995FF9150
S1130B50EF91BF91AF919F918F917F916F915F9131
S1130B604F913F912F910F900FBE0F901F901895AA
S1130B701F920F920FB60F9211242F933F934F930E
S1130B805F936F937F938F939F93AF93BF93CF9311
S1130B90DF93EF93FF93E0913F01F0914001309791
S1130BA0D1F1C3E4D1E08C819D81AE81BF810196F6
S1130BB0A11DB11D8C839D83AE83BF8340914F01E2
S1130BC05091500160915101709152018417950721
S1130BD0A607B70721F0452B462B472BE1F40995CF
S1130BE010924701109248011092490110924A0153
S1130BF080914F0190915001A0915101B091520107
S1130C00892B8A2B8B2B39F080914201811103C0EF
S1130C108091540186BDFF91EF91DF91CF91BF91F7
S1130C20AF919F918F917F916F915F914F913F9180
S1130C302F910F900FBE0F901F9018955058BB27FF
S1130C40AA270E9436060C9480070E94720738F087
S1130C500E94790720F039F49F3F19F426F40C948C
S1130C606F070EF4E095E7FB0C946907E92F0E94E7
S1130C70910758F3BA17620773078407950720F0A2
S1130C8079F4A6F50C94B3070EF4E0950B2EBA2F65
S1130C90A02D0B01B90190010C01CA01A00111247E
S1130CA0FF27591B99F0593F50F4503E68F11A162A
S1130CB0F040A22F232F342F4427585FF3CF4695BB
S1130CC037952795A795F0405395C9F77EF41F16DD
S1130CD0BA0B620B730B840BBAF09150A1F0FF0FA7
S1130CE0BB1F661F771F881FC2F70EC0BA0F621F93
S1130CF0731F841F48F4879577956795B795F79583
S1130D009E3F08F0B0CF9395880F08F09927EE0F17
S1130D109795879508950E949F060C9480070E94DA
S1130D20790758F00E94720740F029F45F3F29F0D8
S1130D300C94690751110C94B4070C946F070E942A
S1130D40910768F39923B1F3552391F3951B550B40
S1130D50BB27AA2762177307840738F09F5F5F4F8A
S1130D60220F331F441FAA1FA9F335D00E2E3AF0C9
S1130D70E0E832D091505040E695001CCAF72BD0E1
S1130D80FE2F29D0660F771F881FBB1F2617370732
S1130D904807AB07B0E809F0BB0B802DBF01FF2764
S1130DA093585F4F3AF09E3F510578F00C946907D1
S1130DB00C94B4075F3FE4F3983ED4F3869577959B
S1130DC06795B795F7959F5FC9F7880F911D96951D
S1130DD0879597F90895E1E0660F771F881FBB1F79
S1130DE0621773078407BA0720F0621B730B840B26
S1130DF0BA0BEE1F88F7E09508950E94990788F0D2
S1130E009F5798F0B92F9927B751B0F0E1F0660FCA
S1130E10771F881F991F1AF0BA95C9F714C0B1300B
S1130E2091F00E94B307B1E008950C94B307672FC3
S1130E30782F8827B85F39F0B93FCCF3869577953A
S1130E406795B395D9F73EF4909580957095619523
S1130E507F4F8F4F9F4F0895E89409C097FB3EF44E
S1130E6090958095709561957F4F8F4F9F4F9923F3
S1130E70A9F0F92F96E9BB279395F6958795779571
S1130E806795B795F111F8CFFAF4BB0F11F460FF31
S1130E901BC06F5F7F4F8F4F9F4F16C0882311F089
S1130EA096E911C0772321F09EE8872F762F05C09D
S1130EB0662371F096E8862F70E060E02AF09A9538
S1130EC0660F771F881FDAF7880F9695879597F92D
S1130ED0089597F99F6780E870E060E008959FEFB8
S1130EE080EC089500240A941616170618060906BD
S1130EF0089500240A94121613061406050608958C
S1130F00092E0394000C11F4882352F0BB0F40F413
S1130F10BF2B11F460FF04C06F5F7F4F8F4F9F4F53
S1130F20089557FD9058440F551F59F05F3F71F0D5
S1130F304795880F97FB991F61F09F3F79F087953C
S1130F400895121613061406551FF2CF4695F1DFC5
S1130F5008C0161617061806991FF1CF8695710555
S1130F60610508940895E894BB2766277727CB0189
S1130F7097F908950E94CD070C9480070E94720788
S1130F8038F00E94790720F0952311F00C9469073A
S1130F900C946F0711240C94B4070E94910770F30A
S1130FA0959FC1F3950F50E0551F629FF001729F0A
S1130FB0BB27F00DB11D639FAA27F00DB11DAA1F19
S1130FC0649F6627B00DA11D661F829F2227B00D66
S1130FD0A11D621F739FB00DA11D621F839FA00DF1
S1130FE0611D221F749F3327A00D611D231F849F41
S1130FF0600D211D822F762F6A2F11249F57504098
S11310009AF0F1F088234AF0EE0FFF1FBB1F661F12
S1131010771F881F91505040A9F79E3F510580F0DB
S11310200C9469070C94B4075F3FE4F3983ED4F33F
S1131030869577956795B795F795E7959F5FC1F77F
S1131040FE2B880F911D9695879597F90895A1E237
S11310501A2EAA1BBB1BFD010DC0AA1FBB1FEE1F2E
S1131060FF1FA217B307E407F50720F0A21BB30B79
S1131070E40BF50B661F771F881F991F1A9469F7F5
S113108060957095809590959B01AC01BD01CF0151
S113109008950F931F93CF93DF938230910510F43B
S11310A082E090E0E0915901F0915A0120E030E0B3
S11310B0A0E0B0E0309719F14081518102811381A1
S11310C048175907C8F08417950769F4109731F049
S11310D012960C93129713961C9327C000935901F0
S11310E010935A0122C02115310519F042175307F4
S11310F018F49A01BD01EF01DF01F801DBCF2115DE
S11311003105F9F0281B390B2430310580F48A812C
S11311109B816115710521F0FB019383828304C0D7
S113112090935A0180935901FE01329644C0FE0106
S1131130E20FF31F8193919322503109398328835D
S11311403AC02091570130915801232B41F420914A
S113115002013091030130935801209357012091EB
S11311600001309101012115310541F42DB73EB73D
S11311704091040150910501241B350BE091570166
S1131180F0915801E217F307A0F42E1B3F0B281728
S1131190390778F0AC014E5F5F4F2417350748F0EC
S11311A04E0F5F1F509358014093570181939193C1
S11311B002C0E0E0F0E0CF01DF91CF911F910F91E9
S11311C00895CF93DF93009709F481C0FC0132970F
S11311D013821282A0915901B0915A01109781F49F
S11311E020813181820F931F209157013091580142
S11311F02817390751F5F0935801E093570167C058
S1131200ED0120E030E0CE17DF0740F44A815B8136
S11312109E0141155105F1F0EA01F5CFD383C28354
S113122040815181840F951FC817D90759F48881CB
S11312309981840F951F0296918380838A819B8173
S1131240938382832115310529F4F0935A01E093A5
S113125059013DC0E901FB83EA8349915991C40FC7
S1131260D51FEC17FD0761F480819181840F951FD0
S11312700296E90199838883828193819B838A837F
S1131280E0E0F0E012968D919C911397009719F08D
S1131290FD01DC01F7CF8D919C9111979D012E5F8B
S11312A03F4F820F931F2091570130915801281707
S11312B0390769F4309729F410925A0110925901B0
S11312C002C013821282B0935801A0935701DF9198
S10B12D0CF910895F894FFCFBB
S11312D800005B012000000000000100000008007D
S11112E80000400000000001000000040000AF
S9030000FC
